{
  "_format": "hh3-artifact-1",
  "contractName": "PositionRebalancer",
  "sourceName": "contracts/PositionRebalancer.sol",
  "abi": [
    {
      "inputs": [
        {
          "internalType": "address",
          "name": "swapRouterAddress",
          "type": "address"
        },
        {
          "internalType": "address",
          "name": "wbtcAddress",
          "type": "address"
        },
        {
          "internalType": "address",
          "name": "usdcAddress",
          "type": "address"
        },
        {
          "internalType": "uint24",
          "name": "poolFee_",
          "type": "uint24"
        }
      ],
      "stateMutability": "nonpayable",
      "type": "constructor"
    },
    {
      "inputs": [],
      "name": "InvalidAddress",
      "type": "error"
    },
    {
      "anonymous": false,
      "inputs": [
        {
          "indexed": true,
          "internalType": "address",
          "name": "accountOwner",
          "type": "address"
        },
        {
          "indexed": true,
          "internalType": "uint256",
          "name": "accountNumber",
          "type": "uint256"
        },
        {
          "indexed": false,
          "internalType": "uint256",
          "name": "wbtcAmountIn",
          "type": "uint256"
        },
        {
          "indexed": false,
          "internalType": "uint256",
          "name": "minUsdcOut",
          "type": "uint256"
        },
        {
          "indexed": false,
          "internalType": "uint256",
          "name": "usdcReceived",
          "type": "uint256"
        }
      ],
      "name": "Rebalanced",
      "type": "event"
    },
    {
      "inputs": [],
      "name": "poolFee",
      "outputs": [
        {
          "internalType": "uint24",
          "name": "",
          "type": "uint24"
        }
      ],
      "stateMutability": "view",
      "type": "function"
    },
    {
      "inputs": [
        {
          "internalType": "address",
          "name": "accountOwner",
          "type": "address"
        },
        {
          "internalType": "uint256",
          "name": "accountNumber",
          "type": "uint256"
        },
        {
          "internalType": "uint256",
          "name": "wbtcAmountIn",
          "type": "uint256"
        },
        {
          "internalType": "uint256",
          "name": "minUsdcOut",
          "type": "uint256"
        }
      ],
      "name": "rebalance",
      "outputs": [],
      "stateMutability": "nonpayable",
      "type": "function"
    },
    {
      "inputs": [],
      "name": "swapRouter",
      "outputs": [
        {
          "internalType": "contract ISwapRouter",
          "name": "",
          "type": "address"
        }
      ],
      "stateMutability": "view",
      "type": "function"
    },
    {
      "inputs": [],
      "name": "usdc",
      "outputs": [
        {
          "internalType": "contract IERC20",
          "name": "",
          "type": "address"
        }
      ],
      "stateMutability": "view",
      "type": "function"
    },
    {
      "inputs": [],
      "name": "wbtc",
      "outputs": [
        {
          "internalType": "contract IERC20",
          "name": "",
          "type": "address"
        }
      ],
      "stateMutability": "view",
      "type": "function"
    }
  ],
  "bytecode": "0x610100604052348015610010575f5ffd5b5060405161071838038061071883398101604081905261002f916100be565b6001600160a01b038416158061004c57506001600160a01b038316155b8061005e57506001600160a01b038216155b1561007c5760405163e6c4247b60e01b815260040160405180910390fd5b6001600160a01b0393841660805291831660a05290911660c05262ffffff1660e052610118565b80516001600160a01b03811681146100b9575f5ffd5b919050565b5f5f5f5f608085870312156100d1575f5ffd5b6100da856100a3565b93506100e8602086016100a3565b92506100f6604086016100a3565b9150606085015162ffffff8116811461010d575f5ffd5b939692955090935050565b60805160a05160c05160e05161059f6101795f395f8181605e015261036101525f818160f2015261033201525f818160b3015281816101a10152818161025a015261030301525f81816101190152818161022b01526102c8015261059f5ff3fe608060405234801561000f575f5ffd5b5060043610610055575f3560e01c8063089fe6aa146100595780632332d74b146100995780633cdc5389146100ae5780633e413bee146100ed578063c31c9c0714610114575b5f5ffd5b6100807f000000000000000000000000000000000000000000000000000000000000000081565b60405162ffffff90911681526020015b60405180910390f35b6100ac6100a736600461046c565b61013b565b005b6100d57f000000000000000000000000000000000000000000000000000000000000000081565b6040516001600160a01b039091168152602001610090565b6100d57f000000000000000000000000000000000000000000000000000000000000000081565b6100d57f000000000000000000000000000000000000000000000000000000000000000081565b5f821161017f5760405162461bcd60e51b815260206004820152600e60248201526d077627463416d6f756e74496e3d360941b604482015260640160405180910390fd5b6040516323b872dd60e01b8152336004820152306024820152604481018390527f00000000000000000000000000000000000000000000000000000000000000006001600160a01b0316906323b872dd906064016020604051808303815f875af11580156101ef573d5f5f3e3d5ffd5b505050506040513d601f19601f8201168201806040525081019061021391906104af565b5060405163095ea7b360e01b81526001600160a01b037f000000000000000000000000000000000000000000000000000000000000000081166004830152602482018490527f0000000000000000000000000000000000000000000000000000000000000000169063095ea7b3906044016020604051808303815f875af11580156102a0573d5f5f3e3d5ffd5b505050506040513d601f19601f820116820180604052508101906102c491906104af565b505f7f00000000000000000000000000000000000000000000000000000000000000006001600160a01b031663414bf3896040518061010001604052807f00000000000000000000000000000000000000000000000000000000000000006001600160a01b031681526020017f00000000000000000000000000000000000000000000000000000000000000006001600160a01b031681526020017f000000000000000000000000000000000000000000000000000000000000000062ffffff168152602001886001600160a01b031681526020014281526020018681526020018581526020015f6001600160a01b03168152506040518263ffffffff1660e01b81526004016103d491906104d5565b6020604051808303815f875af11580156103f0573d5f5f3e3d5ffd5b505050506040513d601f19601f820116820180604052508101906104149190610552565b604080518581526020810185905290810182905290915084906001600160a01b038716907f35829f44b1b274fc382adcc4d247c869c24506b79744d78c5704738e596252a79060600160405180910390a35050505050565b5f5f5f5f6080858703121561047f575f5ffd5b84356001600160a01b0381168114610495575f5ffd5b966020860135965060408601359560600135945092505050565b5f602082840312156104bf575f5ffd5b815180151581146104ce575f5ffd5b9392505050565b81516001600160a01b03908116825260208084015182169083015260408084015162ffffff169083015260608084015191821690830152610100820190506080830151608083015260a083015160a083015260c083015160c083015260e083015161054b60e08401826001600160a01b03169052565b5092915050565b5f60208284031215610562575f5ffd5b505191905056fea2646970667358221220e10b6a1af535319a690c7b995c1d5a103a3f1645cba40cfcad2454c72519444964736f6c634300081c0033",
  "linkReferences": {},
  "deployedLinkReferences": {},
  "immutableReferences": {
    "65": [
      {
        "length": 32,
        "start": 281
      },
      {
        "length": 32,
        "start": 555
      },
      {
        "length": 32,
        "start": 712
      }
    ],
    "68": [
      {
        "length": 32,
        "start": 179
      },
      {
        "length": 32,
        "start": 417
      },
      {
        "length": 32,
        "start": 602
      },
      {
        "length": 32,
        "start": 771
      }
    ],
    "71": [
      {
        "length": 32,
        "start": 242
      },
      {
        "length": 32,
        "start": 818
      }
    ],
    "73": [
      {
        "length": 32,
        "start": 94
      },
      {
        "length": 32,
        "start": 865
      }
    ]
  },
  "inputSourceName": "project/contracts/PositionRebalancer.sol",
  "buildInfoId": "solc-0_8_28-0383bb5f8d35815f60924f60ef3975680fea96b8"
}